:020000000C945E
:100002002A000C9400000C9400000C9400000C9444
:1000120000000C9400000C9400000C9400000C945E
:1000220000000C9400000C9400000C9400000C944E
:1000320000000C9400000C9400000C9400000C943E
:1000420000000C9400000C9400000C9400000C942E
:100052000000F894EE27ECBBF1E0FBBFEBBFE5BF7D
:100062008DE0A2E0BB27ED938A95E9F780E094E06A
:10007200A0E6ED930197E9F7EFE5EDBFE4E0EEBF0F
:10008200C0E6D1E00C944500E0E0EABBEBBBE8E05F
:10009200E7BBE0E0E8BBEFEFE4BBE0E0E5BBE0E8B4
:1000A200E1BBE0E0E2BBE9E6E3BFE0E0E2BFECBFD8
:1000B200E2BDE9E6E5BDE0E0E4BDE3BDE0E8E8B9C4
:1000C200E0E0E0BFE9B3E83041F4A89A0DD0A99886
:1000D2000BD0AA9A09D0AB9802C0E0E0E5BBEFEFE3
:1000E200ECBFE3BDEFCFFFCFEFEFECBFE3BD089571
:00000001FF
