:080000000C942A000C9400008E
:100008000C9400000C9400000C9400000C94000068
:100018000C9400000C9400000C9400000C94000058
:100028000C9400000C9400000C9400000C94000048
:100038000C9400000C9400000C9400000C94000038
:100048000C9400000C9400000C940000F894EE2727
:10005800ECBBF1E0FBBFEBBFE5BF8DE0A2E0BB2747
:10006800ED938A95E9F780E094E0A0E6ED93019797
:10007800E9F7EFE5EDBFE4E0EEBFC0E6D1E00C94B0
:100088004500E0E0EABBE7BBE8E0E8BBEFE0E4BB43
:10009800E0E0E5BBE1BBE0E8E2BBC89B0CC0C99B64
:1000A8000AC0CA9B08C0CB9906C0CC9B04C0CD9B94
:1000B80002C0CE99EFC0C8990CC0C9990AC0CA99A4
:1000C80008C0CB9906C0CC9904C0CD9902C0CE9B7C
:1000D800E1C0C8990CC0C9990AC0CA9908C0CB9B8D
:1000E80006C0CC9904C0CD9902C0CE9BD3C0C89B92
:1000F8000CC0C9990AC0CA9908C0CB9B06C0CC9944
:1001080004C0CD9902C0CE9BC5C0C89B0CC0C99B7A
:100118000AC0CA9908C0CB9B06C0CC9904C0CD9927
:1001280002C0CE9BB7C0C89B0CC0C99B0AC0CA9B63
:1001380008C0CB9B06C0CC9904C0CD9902C0CE9B09
:10014800A9C0C89B0CC0C99B0AC0CA9B08C0CB9B4E
:1001580006C0CC9B04C0CD9902C0CE9B9BC0C89B57
:100168000CC0C99B0AC0CA9B08C0CB9B06C0CC9BCD
:1001780004C0CD9B02C0CE9B8DC0C89B0CC0C99B40
:100188000AC0CA9B08C0CB9B06C0CC9B04C0CD9BB1
:1001980002C0CE997FC0C89B0CC0C9990AC0CA9B2F
:1001A80008C0CB9B06C0CC9904C0CD9902C0CE9B99
:1001B80071C0C8990CC0C9990AC0CA9B08C0CB9B1A
:1001C80006C0CC9904C0CD9902C0CE9B63C0C89923
:1001D8000CC0C9990AC0CA9B08C0CB9B06C0CC9B5F
:1001E80004C0CD9902C0CE9B55C0C8990CC0C9990E
:1001F8000AC0CA9B08C0CB9B06C0CC9B04C0CD9B41
:1002080002C0CE9B47C0C8990CC0C99B0AC0CA9BF4
:1002180008C0CB9B06C0CC9B04C0CD9B02C0CE9B24
:1002280039C0C8990CC0C9990AC0CA9B08C0CB9BE1
:1002380006C0CC9B04C0CD9B02C0CE9B2BC0C89BE4
:100248000CC0C9990AC0CA9B08C0CB9906C0CC9BF0
:1002580004C0CD9902C0CE991DC0C89B0CC0C999D5
:100268000AC0CA9B08C0CB9B06C0CC9B04C0CD99D2
:1002780002C0CE990FC0C8990CC0C9990AC0CA9BC0
:1002880008C0CB9B06C0CC9B04C0CD9B02C0CE9BB4
:1002980001C004C0A89AA998AA9AAB98C8990CC09A
:1002A800C9990AC0CA9908C0CB9906C0CC9B04C09A
:1002B800CD9B02C0CE9901C001C0E0D0C8990CC046
:1002C800C9990AC0CA9908C0CB9906C0CC9904C07C
:1002D800CD9902C0CE9901C004C0A89AA998AA983D
:1002E800AB9AC8990CC0C9990AC0CA9908C0CB99D9
:1002F80006C0CC9B04C0CD9902C0CE9B01C001C0F2
:10030800BDD0C8990CC0C9990AC0CA9908C0CB9970
:1003180006C0CC9904C0CD9B02C0CE9B01C001C0D1
:10032800ADD0C8990CC0C9990AC0CA9908C0CB9960
:1003380006C0CC9B04C0CD9902C0CE9901C001C0B3
:100348009DD0C8990CC0C9990AC0CA9908C0CB9950
:1003580006C0CC9904C0CD9B02C0CE9901C001C093
:100368008DD0C8990CC0C9990AC0CA9908C0CB9940
:1003780006C0CC9B04C0CD9B02C0CE9B01C001C06F
:100388007DD0C89B0CC0C99B0AC0CA9B08C0CB992A
:1003980006C0CC9904C0CD9902C0CE9B01C001C053
:1003A80072D0C89B0CC0C9990AC0CA9908C0CB9919
:1003B80006C0CC9904C0CD9902C0CE9B01C004C030
:1003C800A898A99AAA9AAB98C8990CC0C99B0AC0C0
:1003D800CA9908C0CB9906C0CC9904C0CD9902C06F
:1003E800CE9B01C001C04FD0C8990CC0C9990AC0A2
:1003F800CA9B08C0CB9906C0CC9904C0CD9902C04D
:10040800CE9B01C001C03FD0C89B0CC0C9990AC08F
:10041800CA9B08C0CB9906C0CC9904C0CD9902C02C
:10042800CE9B01C001C02FD0C89B0CC0C99B0AC07D
:10043800CA9908C0CB9906C0CC9904C0CD9902C00E
:10044800CE9B01C001C01FD0C8990CC0C99B0AC06F
:10045800CA9B08C0CB9906C0CC9904C0CD9902C0EC
:10046800CE9B01C001C00FD0B09902C0B19B04C09F
:10047800A898A998AA98AB9810CEFFCFA89AA9983F
:10048800AA98AB980895A898A998AA9AAB9808959D
:00000001FF
