:080000000C942A000C9400008E
:100008000C9400000C9400000C9400000C94000068
:100018000C9400000C9400000C9400000C94000058
:100028000C9400000C9400000C9400000C94000048
:100038000C9400000C9400000C9400000C94000038
:100048000C9400000C9400000C940000F894EE2727
:10005800ECBBF1E0FBBFEBBFE5BF8DE0A2E0BB2747
:10006800ED938A95E9F780E094E0A0E6ED93019797
:10007800E9F7EFE5EDBFE4E0EEBFC0E6D1E00C94B0
:100088004500E0E0EABBE7BBE8E0E8BBEFE0E4BB43
:10009800E0E0E5BBE1BBE0E8E2BBC8990CC0C99968
:1000A8000AC0CA9908C0CB9906C0CC9904C0CD999A
:1000B80002C0CE9BB7C0C8990CC0C9990AC0CA99DA
:1000C80008C0CB9B06C0CC9904C0CD9902C0CE9B7A
:1000D800A9C0C89B0CC0C9990AC0CA9908C0CB9BC3
:1000E80006C0CC9904C0CD9902C0CE9B9BC0C89BCA
:1000F8000CC0C99B0AC0CA9908C0CB9B06C0CC9942
:1001080004C0CD9902C0CE9B8DC0C89B0CC0C99BB2
:100118000AC0CA9B08C0CB9B06C0CC9904C0CD9925
:1001280002C0CE9B7FC0C89B0CC0C99B0AC0CA9B9B
:1001380008C0CB9B06C0CC9B04C0CD9902C0CE9B07
:1001480071C0C89B0CC0C99B0AC0CA9B08C0CB9B86
:1001580006C0CC9B04C0CD9B02C0CE9B63C0C89B8D
:100168000CC0C99B0AC0CA9B08C0CB9B06C0CC9BCD
:1001780004C0CD9B02C0CE9955C0C89B0CC0C9997C
:100188000AC0CA9B08C0CB9B06C0CC9904C0CD99B5
:1001980002C0CE9B47C0C8990CC0C9990AC0CA9B67
:1001A80008C0CB9B06C0CC9904C0CD9902C0CE9B99
:1001B80039C0C8990CC0C9990AC0CA9B08C0CB9B52
:1001C80006C0CC9B04C0CD9902C0CE9B2BC0C89959
:1001D8000CC0C9990AC0CA9B08C0CB9B06C0CC9B5F
:1001E80004C0CD9B02C0CE9B1DC0C8990CC0C99B42
:1001F8000AC0CA9B08C0CB9B06C0CC9B04C0CD9B41
:1002080002C0CE9B0FC0C8990CC0C9990AC0CA9B2E
:1002180008C0CB9B06C0CC9B04C0CD9B02C0CE9B24
:1002280001C004C0A89AA998AA9AAB9836CFFFCF64
:00000001FF
