:080000000C942A000C9400008E
:100008000C9400000C9400000C9400000C94000068
:100018000C9400000C9400000C9400000C94000058
:100028000C9400000C9400000C9400000C94000048
:100038000C9400000C9400000C9400000C94000038
:100048000C9400000C9400000C940000F894EE2727
:10005800ECBBF1E0FBBFEBBFE5BF8DE0A2E0BB2747
:10006800ED938A95E9F780E094E0A0E6ED93019797
:10007800E9F7EFE5EDBFE4E0EEBFC0E6D1E00C94B0
:100088004500E0E0EABBE7BBE8E0E8BBEFE0E4BB43
:10009800E0E0E5BBE1BBE0E8E2BBC8990CC0C99968
:1000A8000AC0CA9908C0CB9906C0CC9904C0CD999A
:1000B80002C0CE9BE1C0C8990CC0C9990AC0CA99B0
:1000C80008C0CB9B06C0CC9904C0CD9902C0CE9B7A
:1000D800D3C0C89B0CC0C9990AC0CA9908C0CB9B99
:1000E80006C0CC9904C0CD9902C0CE9BC5C0C89BA0
:1000F8000CC0C99B0AC0CA9908C0CB9B06C0CC9942
:1001080004C0CD9902C0CE9BB7C0C89B0CC0C99B88
:100118000AC0CA9B08C0CB9B06C0CC9904C0CD9925
:1001280002C0CE9BA9C0C89B0CC0C99B0AC0CA9B71
:1001380008C0CB9B06C0CC9B04C0CD9902C0CE9B07
:100148009BC0C89B0CC0C99B0AC0CA9B08C0CB9B5C
:1001580006C0CC9B04C0CD9B02C0CE9B8DC0C89B63
:100168000CC0C99B0AC0CA9B08C0CB9B06C0CC9BCD
:1001780004C0CD9B02C0CE997FC0C89B0CC0C99952
:100188000AC0CA9B08C0CB9B06C0CC9904C0CD99B5
:1001980002C0CE9B71C0C8990CC0C9990AC0CA9B3D
:1001A80008C0CB9B06C0CC9904C0CD9902C0CE9B99
:1001B80063C0C8990CC0C9990AC0CA9B08C0CB9B28
:1001C80006C0CC9B04C0CD9902C0CE9B55C0C8992F
:1001D8000CC0C9990AC0CA9B08C0CB9B06C0CC9B5F
:1001E80004C0CD9B02C0CE9B47C0C8990CC0C99B18
:1001F8000AC0CA9B08C0CB9B06C0CC9B04C0CD9B41
:1002080002C0CE9B39C0C8990CC0C9990AC0CA9B04
:1002180008C0CB9B06C0CC9B04C0CD9B02C0CE9B24
:100228002BC0C89B0CC0C9990AC0CA9B08C0CB99EF
:1002380006C0CC9B04C0CD9902C0CE991DC0C89BF6
:100248000CC0C9990AC0CA9B08C0CB9B06C0CC9BEE
:1002580004C0CD9902C0CE990FC0C8990CC0C999E5
:100268000AC0CA9B08C0CB9B06C0CC9B04C0CD9BD0
:1002780002C0CE9B01C004C0A89AA998AA9AAB98BC
:10028800C8990CC0C9990AC0CA9908C0CB9906C0B8
:10029800CC9B04C0CD9B02C0CE9901C017C0C899A1
:1002A8000CC0C9990AC0CA9908C0CB9906C0CC9994
:1002B80004C0CD9902C0CE9901C004C0A89AA998DB
:1002C800AA98AB9AA89AA998AA98AB98C89B0CC068
:1002D800C99B0AC0CA9B08C0CB9906C0CC9904C068
:1002E800CD9902C0CE9B01C029C0C89B0CC0C9993A
:1002F8000AC0CA9908C0CB9906C0CC9904C0CD9948
:1003080002C0CE9B01C004C0A898A99AAA9AAB982B
:10031800C8990CC0C99B0AC0CA9908C0CB9906C025
:10032800CC9904C0CD9902C0CE9B01C003C0A89847
:10033800A99A02C0A89AA998AA98AB98AECEFFCF5E
:00000001FF
